{
  "_format": "hh-sol-artifact-1",
  "contractName": "BaseToken",
  "sourceName": "contracts/BaseToken.sol",
  "abi": [
    {
      "inputs": [
        {
          "internalType": "string",
          "name": "name",
          "type": "string"
        },
        {
          "internalType": "string",
          "name": "symbol",
          "type": "string"
        },
        {
          "internalType": "uint256",
          "name": "initialSupply",
          "type": "uint256"
        },
        {
          "internalType": "address",
          "name": "tokenOwner",
          "type": "address"
        }
      ],
      "stateMutability": "nonpayable",
      "type": "constructor"
    },
    {
      "inputs": [],
      "name": "InvalidShortString",
      "type": "error"
    },
    {
      "inputs": [
        {
          "internalType": "string",
          "name": "str",
          "type": "string"
        }
      ],
      "name": "StringTooLong",
      "type": "error"
    },
    {
      "anonymous": false,
      "inputs": [
        {
          "indexed": true,
          "internalType": "address",
          "name": "owner",
          "type": "address"
        },
        {
          "indexed": true,
          "internalType": "address",
          "name": "spender",
          "type": "address"
        },
        {
          "indexed": false,
          "internalType": "uint256",
          "name": "value",
          "type": "uint256"
        }
      ],
      "name": "Approval",
      "type": "event"
    },
    {
      "anonymous": false,
      "inputs": [],
      "name": "EIP712DomainChanged",
      "type": "event"
    },
    {
      "anonymous": false,
      "inputs": [
        {
          "indexed": true,
          "internalType": "address",
          "name": "from",
          "type": "address"
        },
        {
          "indexed": true,
          "internalType": "address",
          "name": "to",
          "type": "address"
        },
        {
          "indexed": false,
          "internalType": "uint256",
          "name": "value",
          "type": "uint256"
        }
      ],
      "name": "Transfer",
      "type": "event"
    },
    {
      "inputs": [],
      "name": "DOMAIN_SEPARATOR",
      "outputs": [
        {
          "internalType": "bytes32",
          "name": "",
          "type": "bytes32"
        }
      ],
      "stateMutability": "view",
      "type": "function"
    },
    {
      "inputs": [
        {
          "internalType": "address",
          "name": "owner",
          "type": "address"
        },
        {
          "internalType": "address",
          "name": "spender",
          "type": "address"
        }
      ],
      "name": "allowance",
      "outputs": [
        {
          "internalType": "uint256",
          "name": "",
          "type": "uint256"
        }
      ],
      "stateMutability": "view",
      "type": "function"
    },
    {
      "inputs": [
        {
          "internalType": "address",
          "name": "spender",
          "type": "address"
        },
        {
          "internalType": "uint256",
          "name": "amount",
          "type": "uint256"
        }
      ],
      "name": "approve",
      "outputs": [
        {
          "internalType": "bool",
          "name": "",
          "type": "bool"
        }
      ],
      "stateMutability": "nonpayable",
      "type": "function"
    },
    {
      "inputs": [
        {
          "internalType": "address",
          "name": "account",
          "type": "address"
        }
      ],
      "name": "balanceOf",
      "outputs": [
        {
          "internalType": "uint256",
          "name": "",
          "type": "uint256"
        }
      ],
      "stateMutability": "view",
      "type": "function"
    },
    {
      "inputs": [
        {
          "internalType": "uint256",
          "name": "amount",
          "type": "uint256"
        }
      ],
      "name": "burn",
      "outputs": [],
      "stateMutability": "nonpayable",
      "type": "function"
    },
    {
      "inputs": [
        {
          "internalType": "address",
          "name": "account",
          "type": "address"
        },
        {
          "internalType": "uint256",
          "name": "amount",
          "type": "uint256"
        }
      ],
      "name": "burnFrom",
      "outputs": [],
      "stateMutability": "nonpayable",
      "type": "function"
    },
    {
      "inputs": [],
      "name": "decimals",
      "outputs": [
        {
          "internalType": "uint8",
          "name": "",
          "type": "uint8"
        }
      ],
      "stateMutability": "view",
      "type": "function"
    },
    {
      "inputs": [
        {
          "internalType": "address",
          "name": "spender",
          "type": "address"
        },
        {
          "internalType": "uint256",
          "name": "subtractedValue",
          "type": "uint256"
        }
      ],
      "name": "decreaseAllowance",
      "outputs": [
        {
          "internalType": "bool",
          "name": "",
          "type": "bool"
        }
      ],
      "stateMutability": "nonpayable",
      "type": "function"
    },
    {
      "inputs": [],
      "name": "eip712Domain",
      "outputs": [
        {
          "internalType": "bytes1",
          "name": "fields",
          "type": "bytes1"
        },
        {
          "internalType": "string",
          "name": "name",
          "type": "string"
        },
        {
          "internalType": "string",
          "name": "version",
          "type": "string"
        },
        {
          "internalType": "uint256",
          "name": "chainId",
          "type": "uint256"
        },
        {
          "internalType": "address",
          "name": "verifyingContract",
          "type": "address"
        },
        {
          "internalType": "bytes32",
          "name": "salt",
          "type": "bytes32"
        },
        {
          "internalType": "uint256[]",
          "name": "extensions",
          "type": "uint256[]"
        }
      ],
      "stateMutability": "view",
      "type": "function"
    },
    {
      "inputs": [
        {
          "internalType": "address",
          "name": "spender",
          "type": "address"
        },
        {
          "internalType": "uint256",
          "name": "addedValue",
          "type": "uint256"
        }
      ],
      "name": "increaseAllowance",
      "outputs": [
        {
          "internalType": "bool",
          "name": "",
          "type": "bool"
        }
      ],
      "stateMutability": "nonpayable",
      "type": "function"
    },
    {
      "inputs": [],
      "name": "name",
      "outputs": [
        {
          "internalType": "string",
          "name": "",
          "type": "string"
        }
      ],
      "stateMutability": "view",
      "type": "function"
    },
    {
      "inputs": [
        {
          "internalType": "address",
          "name": "owner",
          "type": "address"
        }
      ],
      "name": "nonces",
      "outputs": [
        {
          "internalType": "uint256",
          "name": "",
          "type": "uint256"
        }
      ],
      "stateMutability": "view",
      "type": "function"
    },
    {
      "inputs": [
        {
          "internalType": "address",
          "name": "owner",
          "type": "address"
        },
        {
          "internalType": "address",
          "name": "spender",
          "type": "address"
        },
        {
          "internalType": "uint256",
          "name": "value",
          "type": "uint256"
        },
        {
          "internalType": "uint256",
          "name": "deadline",
          "type": "uint256"
        },
        {
          "internalType": "uint8",
          "name": "v",
          "type": "uint8"
        },
        {
          "internalType": "bytes32",
          "name": "r",
          "type": "bytes32"
        },
        {
          "internalType": "bytes32",
          "name": "s",
          "type": "bytes32"
        }
      ],
      "name": "permit",
      "outputs": [],
      "stateMutability": "nonpayable",
      "type": "function"
    },
    {
      "inputs": [],
      "name": "symbol",
      "outputs": [
        {
          "internalType": "string",
          "name": "",
          "type": "string"
        }
      ],
      "stateMutability": "view",
      "type": "function"
    },
    {
      "inputs": [],
      "name": "totalSupply",
      "outputs": [
        {
          "internalType": "uint256",
          "name": "",
          "type": "uint256"
        }
      ],
      "stateMutability": "view",
      "type": "function"
    },
    {
      "inputs": [
        {
          "internalType": "address",
          "name": "to",
          "type": "address"
        },
        {
          "internalType": "uint256",
          "name": "amount",
          "type": "uint256"
        }
      ],
      "name": "transfer",
      "outputs": [
        {
          "internalType": "bool",
          "name": "",
          "type": "bool"
        }
      ],
      "stateMutability": "nonpayable",
      "type": "function"
    },
    {
      "inputs": [
        {
          "internalType": "address",
          "name": "from",
          "type": "address"
        },
        {
          "internalType": "address",
          "name": "to",
          "type": "address"
        },
        {
          "internalType": "uint256",
          "name": "amount",
          "type": "uint256"
        }
      ],
      "name": "transferFrom",
      "outputs": [
        {
          "internalType": "bool",
          "name": "",
          "type": "bool"
        }
      ],
      "stateMutability": "nonpayable",
      "type": "function"
    }
  ],
  "bytecode": "0x61016060405234801562000011575f80fd5b506040516200183c3803806200183c833981016040819052620000349162000349565b6040805180820190915260018152603160f81b6020820152849081908186600362000060838262000463565b5060046200006f828262000463565b5062000081915083905060056200013f565b61012052620000928160066200013f565b61014052815160208084019190912060e052815190820120610100524660a0526200011f60e05161010051604080517f8b73c3c69bb8fe3d512ecc4cf759cc79239f7b179b0ffacaa9a75d522b39400f60208201529081019290925260608201524660808201523060a08201525f9060c00160405160208183030381529060405280519060200120905090565b60805250503060c0525062000135818362000177565b50505050620005a3565b5f6020835110156200015e5762000156836200023c565b905062000171565b816200016b848262000463565b5060ff90505b92915050565b6001600160a01b038216620001d35760405162461bcd60e51b815260206004820152601f60248201527f45524332303a206d696e7420746f20746865207a65726f20616464726573730060448201526064015b60405180910390fd5b8060025f828254620001e691906200052b565b90915550506001600160a01b0382165f81815260208181526040808320805486019055518481527fddf252ad1be2c89b69c2b068fc378daa952ba7f163c4a11628f55a4df523b3ef910160405180910390a35050565b5f80829050601f8151111562000269578260405163305a27a960e01b8152600401620001ca91906200054b565b805162000276826200057f565b179392505050565b505050565b634e487b7160e01b5f52604160045260245ffd5b5f5b83811015620002b357818101518382015260200162000299565b50505f910152565b5f82601f830112620002cb575f80fd5b81516001600160401b0380821115620002e857620002e862000283565b604051601f8301601f19908116603f0116810190828211818310171562000313576200031362000283565b816040528381528660208588010111156200032c575f80fd5b6200033f84602083016020890162000297565b9695505050505050565b5f805f80608085870312156200035d575f80fd5b84516001600160401b038082111562000374575f80fd5b6200038288838901620002bb565b9550602087015191508082111562000398575f80fd5b50620003a787828801620002bb565b60408701516060880151919550935090506001600160a01b0381168114620003cd575f80fd5b939692955090935050565b600181811c90821680620003ed57607f821691505b6020821081036200040c57634e487b7160e01b5f52602260045260245ffd5b50919050565b601f8211156200027e575f81815260208120601f850160051c810160208610156200043a5750805b601f850160051c820191505b818110156200045b5782815560010162000446565b505050505050565b81516001600160401b038111156200047f576200047f62000283565b6200049781620004908454620003d8565b8462000412565b602080601f831160018114620004cd575f8415620004b55750858301515b5f19600386901b1c1916600185901b1785556200045b565b5f85815260208120601f198616915b82811015620004fd57888601518255948401946001909101908401620004dc565b50858210156200051b57878501515f19600388901b60f8161c191681555b5050505050600190811b01905550565b808201808211156200017157634e487b7160e01b5f52601160045260245ffd5b602081525f82518060208401526200056b81604085016020870162000297565b601f01601f19169190910160400192915050565b805160208083015191908110156200040c575f1960209190910360031b1b16919050565b60805160a05160c05160e051610100516101205161014051611247620005f55f395f6103e201525f6103b701525f610a6e01525f610a4601525f6109a101525f6109cb01525f6109f501526112475ff3fe608060405234801561000f575f80fd5b5060043610610106575f3560e01c806370a082311161009e57806395d89b411161006e57806395d89b4114610218578063a457c2d714610220578063a9059cbb14610233578063d505accf14610246578063dd62ed3e14610259575f80fd5b806370a08231146101af57806379cc6790146101d75780637ecebe00146101ea57806384b0196e146101fd575f80fd5b8063313ce567116100d9578063313ce567146101705780633644e5151461017f578063395093511461018757806342966c681461019a575f80fd5b806306fdde031461010a578063095ea7b31461012857806318160ddd1461014b57806323b872dd1461015d575b5f80fd5b61011261026c565b60405161011f9190610fb5565b60405180910390f35b61013b610136366004610fe9565b6102fc565b604051901515815260200161011f565b6002545b60405190815260200161011f565b61013b61016b366004611011565b610315565b6040516012815260200161011f565b61014f610338565b61013b610195366004610fe9565b610346565b6101ad6101a836600461104a565b610367565b005b61014f6101bd366004611061565b6001600160a01b03165f9081526020819052604090205490565b6101ad6101e5366004610fe9565b610374565b61014f6101f8366004611061565b61038d565b6102056103aa565b60405161011f979695949392919061107a565b610112610431565b61013b61022e366004610fe9565b610440565b61013b610241366004610fe9565b6104bf565b6101ad61025436600461110e565b6104cc565b61014f61026736600461117b565b61062d565b60606003805461027b906111ac565b80601f01602080910402602001604051908101604052809291908181526020018280546102a7906111ac565b80156102f25780601f106102c9576101008083540402835291602001916102f2565b820191905f5260205f20905b8154815290600101906020018083116102d557829003601f168201915b5050505050905090565b5f33610309818585610657565b60019150505b92915050565b5f3361032285828561077b565b61032d8585856107f3565b506001949350505050565b5f610341610995565b905090565b5f33610309818585610358838361062d565b61036291906111de565b610657565b6103713382610abe565b50565b61037f82338361077b565b6103898282610abe565b5050565b6001600160a01b0381165f9081526007602052604081205461030f565b5f606080828080836103dd7f00000000000000000000000000000000000000000000000000000000000000006005610be6565b6104087f00000000000000000000000000000000000000000000000000000000000000006006610be6565b604080515f80825260208201909252600f60f81b9b939a50919850469750309650945092509050565b60606004805461027b906111ac565b5f338161044d828661062d565b9050838110156104b25760405162461bcd60e51b815260206004820152602560248201527f45524332303a2064656372656173656420616c6c6f77616e63652062656c6f77604482015264207a65726f60d81b60648201526084015b60405180910390fd5b61032d8286868403610657565b5f336103098185856107f3565b8342111561051c5760405162461bcd60e51b815260206004820152601d60248201527f45524332305065726d69743a206578706972656420646561646c696e6500000060448201526064016104a9565b5f7f6e71edae12b1b97f4d1f60370fef10105fa2faae0126114a169c64845d6126c988888861054a8c610c8f565b6040805160208101969096526001600160a01b0394851690860152929091166060840152608083015260a082015260c0810186905260e0016040516020818303038152906040528051906020012090505f6105a482610cb6565b90505f6105b382878787610ce2565b9050896001600160a01b0316816001600160a01b0316146106165760405162461bcd60e51b815260206004820152601e60248201527f45524332305065726d69743a20696e76616c6964207369676e6174757265000060448201526064016104a9565b6106218a8a8a610657565b50505050505050505050565b6001600160a01b039182165f90815260016020908152604080832093909416825291909152205490565b6001600160a01b0383166106b95760405162461bcd60e51b8152602060048201526024808201527f45524332303a20617070726f76652066726f6d20746865207a65726f206164646044820152637265737360e01b60648201526084016104a9565b6001600160a01b03821661071a5760405162461bcd60e51b815260206004820152602260248201527f45524332303a20617070726f766520746f20746865207a65726f206164647265604482015261737360f01b60648201526084016104a9565b6001600160a01b038381165f8181526001602090815260408083209487168084529482529182902085905590518481527f8c5be1e5ebec7d5bd14f71427d1e84f3dd0314c0f7b2291e5b200ac8c7c3b92591015b60405180910390a3505050565b5f610786848461062d565b90505f1981146107ed57818110156107e05760405162461bcd60e51b815260206004820152601d60248201527f45524332303a20696e73756666696369656e7420616c6c6f77616e636500000060448201526064016104a9565b6107ed8484848403610657565b50505050565b6001600160a01b0383166108575760405162461bcd60e51b815260206004820152602560248201527f45524332303a207472616e736665722066726f6d20746865207a65726f206164604482015264647265737360d81b60648201526084016104a9565b6001600160a01b0382166108b95760405162461bcd60e51b815260206004820152602360248201527f45524332303a207472616e7366657220746f20746865207a65726f206164647260448201526265737360e81b60648201526084016104a9565b6001600160a01b0383165f90815260208190526040902054818110156109305760405162461bcd60e51b815260206004820152602660248201527f45524332303a207472616e7366657220616d6f756e7420657863656564732062604482015265616c616e636560d01b60648201526084016104a9565b6001600160a01b038481165f81815260208181526040808320878703905593871680835291849020805487019055925185815290927fddf252ad1be2c89b69c2b068fc378daa952ba7f163c4a11628f55a4df523b3ef910160405180910390a36107ed565b5f306001600160a01b037f0000000000000000000000000000000000000000000000000000000000000000161480156109ed57507f000000000000000000000000000000000000000000000000000000000000000046145b15610a1757507f000000000000000000000000000000000000000000000000000000000000000090565b610341604080517f8b73c3c69bb8fe3d512ecc4cf759cc79239f7b179b0ffacaa9a75d522b39400f60208201527f0000000000000000000000000000000000000000000000000000000000000000918101919091527f000000000000000000000000000000000000000000000000000000000000000060608201524660808201523060a08201525f9060c00160405160208183030381529060405280519060200120905090565b6001600160a01b038216610b1e5760405162461bcd60e51b815260206004820152602160248201527f45524332303a206275726e2066726f6d20746865207a65726f206164647265736044820152607360f81b60648201526084016104a9565b6001600160a01b0382165f9081526020819052604090205481811015610b915760405162461bcd60e51b815260206004820152602260248201527f45524332303a206275726e20616d6f756e7420657863656564732062616c616e604482015261636560f01b60648201526084016104a9565b6001600160a01b0383165f818152602081815260408083208686039055600280548790039055518581529192917fddf252ad1be2c89b69c2b068fc378daa952ba7f163c4a11628f55a4df523b3ef910161076e565b606060ff8314610c0057610bf983610d08565b905061030f565b818054610c0c906111ac565b80601f0160208091040260200160405190810160405280929190818152602001828054610c38906111ac565b8015610c835780601f10610c5a57610100808354040283529160200191610c83565b820191905f5260205f20905b815481529060010190602001808311610c6657829003601f168201915b5050505050905061030f565b6001600160a01b0381165f9081526007602052604090208054600181018255905b50919050565b5f61030f610cc2610995565b8360405161190160f01b8152600281019290925260228201526042902090565b5f805f610cf187878787610d45565b91509150610cfe81610e02565b5095945050505050565b60605f610d1483610f4b565b6040805160208082528183019092529192505f91906020820181803683375050509182525060208101929092525090565b5f807f7fffffffffffffffffffffffffffffff5d576e7357a4501ddfe92f46681b20a0831115610d7a57505f90506003610df9565b604080515f8082526020820180845289905260ff881692820192909252606081018690526080810185905260019060a0016020604051602081039080840390855afa158015610dcb573d5f803e3d5ffd5b5050604051601f1901519150506001600160a01b038116610df3575f60019250925050610df9565b91505f90505b94509492505050565b5f816004811115610e1557610e156111fd565b03610e1d5750565b6001816004811115610e3157610e316111fd565b03610e7e5760405162461bcd60e51b815260206004820152601860248201527f45434453413a20696e76616c6964207369676e6174757265000000000000000060448201526064016104a9565b6002816004811115610e9257610e926111fd565b03610edf5760405162461bcd60e51b815260206004820152601f60248201527f45434453413a20696e76616c6964207369676e6174757265206c656e6774680060448201526064016104a9565b6003816004811115610ef357610ef36111fd565b036103715760405162461bcd60e51b815260206004820152602260248201527f45434453413a20696e76616c6964207369676e6174757265202773272076616c604482015261756560f01b60648201526084016104a9565b5f60ff8216601f81111561030f57604051632cd44ac360e21b815260040160405180910390fd5b5f81518084525f5b81811015610f9657602081850181015186830182015201610f7a565b505f602082860101526020601f19601f83011685010191505092915050565b602081525f610fc76020830184610f72565b9392505050565b80356001600160a01b0381168114610fe4575f80fd5b919050565b5f8060408385031215610ffa575f80fd5b61100383610fce565b946020939093013593505050565b5f805f60608486031215611023575f80fd5b61102c84610fce565b925061103a60208501610fce565b9150604084013590509250925092565b5f6020828403121561105a575f80fd5b5035919050565b5f60208284031215611071575f80fd5b610fc782610fce565b60ff60f81b881681525f602060e08184015261109960e084018a610f72565b83810360408501526110ab818a610f72565b606085018990526001600160a01b038816608086015260a0850187905284810360c086015285518082528387019250908301905f5b818110156110fc578351835292840192918401916001016110e0565b50909c9b505050505050505050505050565b5f805f805f805f60e0888a031215611124575f80fd5b61112d88610fce565b965061113b60208901610fce565b95506040880135945060608801359350608088013560ff8116811461115e575f80fd5b9699959850939692959460a0840135945060c09093013592915050565b5f806040838503121561118c575f80fd5b61119583610fce565b91506111a360208401610fce565b90509250929050565b600181811c908216806111c057607f821691505b602082108103610cb057634e487b7160e01b5f52602260045260245ffd5b8082018082111561030f57634e487b7160e01b5f52601160045260245ffd5b634e487b7160e01b5f52602160045260245ffdfea2646970667358221220950ed6bc812c82dfc5cb7abfa4b14f81a99bb7301c12cb1080452a5d4997dfeb64736f6c63430008140033",
  "linkReferences": {},
  "deployedLinkReferences": {}
}